:020000040800F2
:1000000000500020B51A0008FD1A0008FD1A00086B
:10001000FD1A0008FD1A0008FD1A00080000000083
:10002000000000000000000000000000FD1A0008B1
:10003000FD1A000800000000FD1A00080114000865
:10004000FD1A0008FD1A0008FD1A0008FD1A000834
:10005000FD1A0008FD1A0008FD1A0008FD1A000824
:10006000FD1A0008FD1A0008FD1A0008FD1A000814
:10007000FD1A0008FD1A0008FD1A0008FD1A000804
:10008000FD1A0008FD1A0008FD1A00089D1100085D
:100090002D110008FD1A0008FD1A0008A51200081D
:1000A000FD1A0008FD1A0008FD1A0008FD1A0008D4
:1000B000FD1A00084517000885170008FD1A0008FA
:1000C000FD1A0008FD1A0008FD1A0008FD1A0008B4
:1000D000FD1A0008CD190008FD1A0008FD1A0008D5
:1000E000FD1A0008FD1A0008FD1A000800000000B3
:1000F0000000000000000000000000000000000000
:0C01000000000000000000005FF808F1A3
:1001100010B5054C237833B9044B13B10448AFF341
:1001200000800123237010BDF801002000000000B2
:100130002044000808B5034B1BB103490348AFF343
:10014000008008BD00000000FC01002020440008E1
:10015000034613F8012B002AFBD1181A0138704707
:1001600081F0004102E000BF83F0004330B54FEA68
:1001700041044FEA430594EA050F08BF90EA020FD5
:100180001FBF54EA000C55EA020C7FEA645C7FEA68
:10019000655C00F0E2804FEA5454D4EB5555B8BF8B
:1001A0006D420CDD2C4480EA020281EA030382EAFC
:1001B000000083EA010180EA020281EA0303362D8E
:1001C00088BF30BD11F0004F4FEA01314FF4801C61
:1001D0004CEA113102D0404261EB410113F0004F73
:1001E0004FEA03334CEA133302D0524263EB43032A
:1001F00094EA050F00F0A780A4F10104D5F1200EC8
:100200000DDB02FA0EFC22FA05F2801841F1000122
:1002100003FA0EF2801843FA05F359410EE0A5F1F6
:1002200020050EF1200E012A03FA0EFC28BF4CF027
:10023000020C43FA05F3C01851EBE37101F00045DD
:1002400007D54FF0000EDCF1000C7EEB00006EEBEA
:100250000101B1F5801F1BD3B1F5001F0CD3490874
:100260005FEA30004FEA3C0C04F101044FEA4452CB
:1002700012F5800F80F09A80BCF1004F08BF5FEA52
:10028000500C50F1000041EB045141EA050130BD32
:100290005FEA4C0C404141EB0101013C28BFB1F544
:1002A000801FE9D291F0000F04BF01460020B1FA8F
:1002B00081F308BF2033A3F10B03B3F120020CDA62
:1002C0000C3208DD02F1140CC2F10C0201FA0CF040
:1002D00021FA02F10CE002F11402D8BFC2F1200CA5
:1002E00001FA02F120FA0CFCDCBF41EA0C0190405B
:1002F000E41AA2BF01EB0451294330BD6FEA0404A4
:100300001F3C1CDA0C340EDC04F11404C4F120028E
:1003100020FA04F001FA02F340EA030021FA04F3A0
:1003200045EA030130BDC4F10C04C4F1200220FAF7
:1003300002F001FA04F340EA0300294630BD21FA35
:1003400004F0294630BD94F0000F83F4801306BFFB
:1003500081F480110134013D4EE77FEA645C18BFEF
:100360007FEA655C29D094EA050F08BF90EA020F86
:1003700005D054EA000C04BF1946104630BD91EA7E
:10038000030F1EBF0021002030BD5FEA545C05D181
:100390004000494128BF41F0004130BD14F58004C0
:1003A0003CBF01F5801130BD01F0004545F0FE4134
:1003B00041F470014FF0000030BD7FEA645C1ABF69
:1003C000194610467FEA655C1CBF0B46024650EAA0
:1003D000013406BF52EA033591EA030F41F40021CC
:1003E00030BD00BF90F0000F04BF0021704730B552
:1003F0004FF4806404F132044FF000054FF0000127
:1004000050E700BF90F0000F04BF0021704730B5E7
:100410004FF4806404F1320410F0004548BF4042BC
:100420004FF000013EE700BF42004FEAE2014FEA11
:1004300031014FEA02701FBF12F07F4393F07F4FEC
:1004400081F06051704732F07F4208BF704793F0EF
:100450007F4F04BF41F40021704730B54FF4607402
:1004600001F0004521F000411CE700BF50EA010205
:1004700008BF704730B54FF000050AE050EA0102AE
:1004800008BF704730B511F0004502D5404261EB1E
:1004900041014FF4806404F132045FEA915C3FF45F
:1004A000D8AE4FF003025FEADC0C18BF03325FEAFC
:1004B000DC0C18BF033202EBDC02C2F1200300FAAD
:1004C00003FC20FA02F001FA03FE40EA0E0021FAD2
:1004D00002F11444BDE600BF70B54FF0FF0C4CF4C0
:1004E000E06C1CEA11541DBF1CEA135594EA0C0F72
:1004F00095EA0C0F00F0DEF82C4481EA030621EAAD
:100500004C5123EA4C5350EA013518BF52EA0335E7
:1005100041F4801143F4801338D0A0FB02CE4FF099
:100520000005E1FB02E506F00042E0FB03E54FF0C9
:100530000006E1FB03569CF0000F18BF4EF0010EC1
:10054000A4F1FF04B6F5007F64F5407404D25FEABD
:100550004E0E6D4146EB060642EAC62141EA555170
:100560004FEAC52040EA5E504FEACE2EB4F1FD0CB2
:1005700088BFBCF5E06F1ED8BEF1004F08BF5FEA30
:10058000500E50F1000041EB045170BD06F00046E2
:1005900046EA010140EA020081EA0301B4EB5C048F
:1005A000C2BFD4EB0C0541EA045170BD41F4801187
:1005B0004FF0000E013C00F3AB8014F1360FDEBFAC
:1005C000002001F0004170BDC4F10004203C35DA88
:1005D0000C341BDC04F11404C4F1200500FA05F30B
:1005E00020FA04F001FA05F240EA020001F00042AC
:1005F00021F0004110EBD37021FA04F642EB060122
:100600005EEA430E08BF20EAD37070BDC4F10C044B
:10061000C4F1200500FA04F320FA05F001FA04F20F
:1006200040EA020001F0004110EBD37041F10001FB
:100630005EEA430E08BF20EAD37070BDC4F1200506
:1006400000FA05F24EEA020E20FA04F301FA05F26E
:1006500043EA020321FA04F001F0004121FA04F216
:1006600020EA020000EBD3705EEA430E08BF20EAE6
:10067000D37070BD94F0000F0FD101F00046400020
:1006800041EB010111F4801F08BF013CF7D041EAA2
:10069000060195F0000F18BF704703F000465200A6
:1006A00043EB030313F4801F08BF013DF7D043EA77
:1006B0000603704794EA0C0F0CEA135518BF95EA2D
:1006C0000C0F0CD050EA410618BF52EA4306D1D1B4
:1006D00081EA030101F000414FF0000070BD50EAD3
:1006E000410606BF1046194652EA430619D094EA5D
:1006F0000C0F02D150EA013613D195EA0C0F05D147
:1007000052EA03361CBF104619460AD181EA03019A
:1007100001F0004141F0FE4141F470014FF0000052
:1007200070BD41F0FE4141F4780170BD70B54FF0ED
:10073000FF0C4CF4E06C1CEA11541DBF1CEA13556D
:1007400094EA0C0F95EA0C0F00F0A7F8A4EB05044F
:1007500081EA030E52EA03354FEA013100F0888046
:100760004FEA03334FF0805545EA131343EA12630F
:100770004FEA022245EA111545EA10654FEA0026C4
:100780000EF000419D4208BF964244F1FD0404F57D
:10079000407402D25B084FEA3202B61A65EB0305D9
:1007A0005B084FEA32024FF480104FF4002CB6EB96
:1007B000020E75EB030E22BFB61A754640EA0C0016
:1007C0005B084FEA3202B6EB020E75EB030E22BF56
:1007D000B61A754640EA5C005B084FEA3202B6EB97
:1007E000020E75EB030E22BFB61A754640EA9C0056
:1007F0005B084FEA3202B6EB020E75EB030E22BF26
:10080000B61A754640EADC0055EA060E18D04FEAE3
:10081000051545EA16754FEA06164FEAC30343EA83
:1008200052734FEAC2025FEA1C1CC0D111F4801F50
:100830000BD141EA00014FF000004FF0004CB6E749
:1008400011F4801F04BF01430020B4F1FD0C88BFE8
:10085000BCF5E06F3FF6AFAEB5EB030C04BFB6EBF3
:10086000020C5FEA500C50F1000041EB045170BDE6
:100870000EF0004E4EEA113114EB5C04C2BFD4EB13
:100880000C0541EA045170BD41F480114FF0000E97
:10089000013C90E645EA060E8DE60CEA135594EA13
:1008A0000C0F08BF95EA0C0F3FF43BAF94EA0C0F16
:1008B0000AD150EA01347FF434AF95EA0C0F7FF48B
:1008C00025AF104619462CE795EA0C0F06D152EADF
:1008D00003353FF4FDAE1046194622E750EA4106C3
:1008E00018BF52EA43067FF4C5AE50EA41047FF4D4
:1008F0000DAF52EA43057FF4EBAE12E74FF0FF3C39
:1009000006E000BF4FF0010C02E000BF4FF0010C09
:100910004DF804CD4FEA410C7FEA6C5C4FEA430C82
:1009200018BF7FEA6C5C1BD001B050EA410C0CBFD1
:1009300052EA430C91EA030F02BF90EA020F002033
:10094000704710F1000F91EA030F58BF994208BF9A
:1009500090422CBFD8176FEAE37040F00100704757
:100960004FEA410C7FEA6C5C02D150EA013C07D1AE
:100970004FEA430C7FEA6C5CD6D152EA033CD3D0F9
:100980005DF8040B704700BF8446104662468C46F3
:100990001946634600E000BF01B5FFF7B7FF002826
:1009A00048BF10F1000F01BD4DF808EDFFF7F4FF4F
:1009B0000CBF012000205DF808FB00BF4DF808EDDA
:1009C000FFF7EAFF34BF012000205DF808FB00BFFD
:1009D0004DF808EDFFF7E0FF94BF012000205DF81F
:1009E00008FB00BF4DF808EDFFF7CEFF94BF0120D4
:1009F00000205DF808FB00BF4DF808EDFFF7C4FFCD
:100A000034BF012000205DF808FB00BF4FEA410C15
:100A10007FEA6C5C02D150EA013C0AD14FEA430CF8
:100A20007FEA6C5C02D152EA033C02D14FF0000035
:100A300070474FF0010070474FEA410212F5001273
:100A400015D211D56FF47873B3EB625212D94FEA15
:100A5000C12343F0004343EA505311F0004F23FAFF
:100A600002F018BF404270474FF00000704750EA54
:100A7000013005D111F0004008BF6FF00040704711
:100A80004FF00000704700BF80B582B000AF00F0AB
:100A90003BFC00F0B1FB00F0E5FE00F02BFA00F0AB
:100AA00005FD00F063FD00F09FFD00F0DFFB00F0AE
:100AB00093F95A4B00221A70584B1B78DBB2002B6B
:100AC00036D0564B00221A70554B1B78012B08D19B
:100AD00000F0BEFB00F08CF900F018FE00F02AFDDB
:100AE00026E04F4B1B78022B22D100F01DFE00F0B8
:100AF0002FFD00F0BBFB4B4B00221A800023FB8034
:100B000002E0FB880133FB80FB8841F2873293428D
:100B1000F7D900F079F90023BB8002E0BB880133EC
:100B2000BB80BB8841F287329342F7D900F054F979
:100B30003D4B1B78DBB2012BBED13B4B00221A7020
:100B400040F24111394800F07FFA394B1B88DAB284
:100B5000384B5A70364B1B881B0A9BB2DAB2354BA6
:100B60009A7000BF344B1B78DBB2002BFAD0324BAB
:100B700000221A702B4B1B889BB2B3F57A7F18D2D8
:100B8000284B1B889BB25A1C91B2264A11801A46E8
:100B90002A4B9B569BB21A46920013441A46910068
:100BA0001A460B4613449B009BB21AB2244B1A8080
:100BB00005E01B4B02221A70184B01221A70214BC0
:100BC00093F900301A461E4BB3F900309A421ED0FA
:100BD0001B4BB3F900301A464FF4167302FB03F3B4
:100BE000184600F01DF9164BB3F900305AB2154BF8
:100BF0001A70134BB3F90030DAB20E4B5A71104B26
:100C0000B3F900301B121BB2DAB20A4B9A710721FA
:100C1000084800F0ABFE00F0BFFE4DE73E020020AA
:100C20003D02002014020020300200202800002095
:100C3000320200201C020020280200203844000854
:100C4000160200201802002080B400AF01231846CD
:100C5000BD4680BC704780B582B000AF7860396017
:100C600001F000FD034616221A604FF0FF331846CC
:100C70000837BD4680BD80B582B000AF78604FF0C8
:100C8000FF317868FFF7E7FF00BFFDE780B586B06A
:100C900000AFF860B9607A6000237B610AE0AFF3CF
:100CA00000800146BB685A1CBA60CAB21A707B69E0
:100CB00001337B617A697B689A42F0DB7B68184676
:100CC0001837BD4680BD80B586B000AFF860B9600A
:100CD0007A6000237B6109E0BB685A1CBA601B780C
:100CE0001846AFF300807B6901337B617A697B68CA
:100CF0009A42F1DB7B6818461837BD4680BD80B448
:100D000083B000AF78604FF0FF3318460C37BD4614
:100D100080BC704780B483B000AF786039603B68B6
:100D20004FF400525A60002318460C37BD4680BC71
:100D3000704780B483B000AF7860012318460C3749
:100D4000BD4680BC704780B485B000AFF860B96024
:100D50007A60002318461437BD4680BC70470000F7
:100D600080B586B000AF7860144A154BD31A7B610A
:100D70007B693B61134B1B68002B02D1114B124A5C
:100D80001A60104B1A687B6813443A699A4207D27A
:100D900001F068FC03460C221A604FF0FF3309E0B3
:100DA000084B1B68FB60074B1A687B681344054AB5
:100DB0001360FB6818461837BD4680BD0050002000
:100DC00000040000240200209003002080B400AF43
:100DD00000BFBD4680BC704780B500AF40F24111F6
:100DE000024800F031F900BF80BD00BF00000020C4
:100DF00080B500AF40F24111024800F025F900BF74
:100E000080BD00BF0800002080B500AF40F2411156
:100E1000024800F019F900BF80BD00BF100000209B
:100E200080B582B000AF78607B68DAB20C4B1A777D
:100E30007B681B12DAB20A4B5A777B681B14DAB252
:100E4000074B9A777B681B0EDAB2054BDA7740F2D4
:100E50004111044800F0F8F800BF0837BD4680BDD6
:100E6000000000201800002080B483B000AF0346CB
:100E7000FB7197F90730002B0BDBFB7903F01F02A6
:100E8000064997F907305B09012000FA02F241F8A0
:100E9000232000BF0C37BD4680BC704700E100E056
:100EA00080B483B000AF03463960FB7197F9073017
:100EB000002B0ADB3B68DAB20C4997F907301201C4
:100EC000D2B20B4483F800230AE03B68DAB2084947
:100ED000FB7903F00F03043B1201D2B20B441A76E4
:100EE00000BF0C37BD4680BC704700BF00E100E08A
:100EF00000ED00E080B500AF504B9B6903F00403A8
:100F0000002B05D14D4B9B694C4A43F00403936180
:100F10004A4BDB6903F00073002B05D1474BDB69BB
:100F2000464A43F00073D361454B5B68444A23F45F
:100F30007F235360424B5B68414A43F480435360D4
:100F40003F4B5B683E4A43F4102353603D4B1B68A4
:100F50003C4A23F0020313603A4B1B68394A43F0C2
:100F60000103136000BF374B5B6803F00103002BE4
:100F7000F9D0344BDB69334A23F47F7323F0030346
:100F8000D361304BDB692F4A43F00803D3612D4B0B
:100F9000DB692C4A23F4FE03D3612A4BDB69294A1F
:100FA00043F4A023D361274BDB69264A23F0407327
:100FB000D361244BD3F80032224A43F00103C2F834
:100FC0000032204B0022C3F804221E4B0122C3F83A
:100FD0000C221C4B0022C3F814221A4B0122C3F826
:100FE0001C22184B0022C3F84022164B0022C3F8E3
:100FF0004422144BD3F80032124A23F00103C2F802
:101000000032104B1B680F4A23F00103136000BF2E
:101010000C4B5B6803F00103002BF9D1094B5B69B2
:10102000084A43F00203536102211420FFF738FFFE
:101030001420FFF719FF00BF80BD00BF0010024061
:10104000000801400064004080B483B000AF7860C5
:101050000B467B80344B9B6803F08063002B5DD094
:101060007B88314A5B05C2F880312F4B0822C3F8D8
:1010700084217B681A782C4BC3F888212A4BD3F83B
:1010800088217B6801331B781B0227491343C1F871
:101090008831254BD3F888217B6802331B781B04E9
:1010A00021491343C1F888311F4BD3F888217B684D
:1010B00003331B781B061C491343C1F888317B6836
:1010C00004331A78184BC3F88C21174BD3F88C21B2
:1010D0007B6805331B781B0213491343C1F88C311D
:1010E000114BD3F88C217B6806331B781B040E4907
:1010F0001343C1F88C310C4BD3F88C217B68073338
:101100001B781B0608491343C1F88C31064BD3F8F2
:101110008031054A43F00103C2F8803100BF0C372B
:10112000BD4680BC704700BF0064004080B400AF83
:10113000164BDB6803F00303002B22D0134BD3F8CC
:10114000B831DBB29C2B16D1104BD3F8BC311AB29C
:101150000F4B1A800E4BB3F90030DAB20D4BDA7038
:101160000B4BB3F900301B121BB2DAB2094B1A71E8
:10117000094B01221A70054BDB68044A43F0200337
:10118000D36000BFBD4680BC704700BF0064004014
:101190001A0200201C0200202802002080B400AFA8
:1011A000144B9B6803F00103002B06D0114B9B6886
:1011B000104A43F00103936018E00E4B9B6803F460
:1011C0008073002B06D00B4B9B680A4A43F4807354
:1011D00093600BE0074B9B6803F48033002B05D032
:1011E000044B9B68034A43F48033936000BFBD46C1
:1011F00080BC70470064004080B400AF124B9B6914
:1012000003F01003002B05D10F4B9B690E4A43F0EE
:10121000100393610D4B5B680C4A23F47003536019
:101220000A4BDB68094A43F40053D360074B5B6801
:10123000064A43F400135360044B044A5B6853604E
:1012400000BFBD4680BC7047001002400010014046
:1012500080B400AF044B1B69034A43F00053136191
:1012600000BFBD4680BC70470010014080B400AF95
:10127000044B1B69034A43F40053136100BFBD468E
:1012800080BC70470010014080B400AF044BDB68A5
:10129000034A83F40053D36000BFBD4680BC70474F
:1012A0000010014080B500AF074B5B6903F02003DD
:1012B000002B07D0044B5B69034A43F020035361C2
:1012C000FFF7E2FF00BF80BD0004014080B483B09F
:1012D00000AF0346FB7197F90730002B0CDBFB795D
:1012E00003F01F02074997F907305B09012000FA54
:1012F00002F2603341F8232000BF0C37BD4680BCAA
:10130000704700BF00E100E080B400AF3A4B1B68BB
:10131000394A23F480331360374B1B68364A43F451
:101320008033136000BF344B1B6803F40033002B81
:10133000F9D0324B1B68314A23F0070313602F4B5F
:101340001B682E4A43F0040313602C4B1B682B4A86
:1013500043F010031360284B5B68274A43F4803343
:101360005360254B5B68244A43F4E0135360224BDF
:101370001B68214A43F08073136000BF1E4B1B683B
:1013800003F00073002BF9D01B4B5B681A4A23F45F
:10139000E0635360184B5B68174A43F48063536003
:1013A000154B5B68144A23F460535360124B124A86
:1013B0005B685360104B5B680F4A23F0F003536087
:1013C0000D4B0D4A5B6853600B4B5B680A4A23F078
:1013D00003035360084B5B68074A43F00203536002
:1013E00000BF054B5B6803F00803002BF9D000BF7A
:1013F00000BFBD4680BC7047001002400020024084
:1014000080B500AF4FF0FF30FFF760FF034B1B6864
:101410000133024A136000BF80BD00BF2C020020D0
:1014200080B483B000AF0346FB7197F90730002BFF
:101430000BDBFB7903F01F02064997F907305B09C4
:10144000012000FA02F241F8232000BF0C37BD460C
:1014500080BC704700E100E080B483B000AF034679
:101460003960FB7197F90730002B0ADB3B68DAB271
:101470000C4997F907301201D2B20B4483F80023CC
:101480000AE03B68DAB20849FB7903F00F03043B3A
:101490001201D2B20B441A7600BF0C37BD4680BC95
:1014A000704700BF00E100E000ED00E080B400AF55
:1014B0001F4BDB691E4A43F00103D3614FF08043A9
:1014C00041F61F429A624FF080436322DA624FF086
:1014D00080431B684FF0804223F0100313604FF0ED
:1014E00080431B684FF0804223F0080313604FF0E5
:1014F00080435B684FF0804223F0700353604FF0ED
:1015000080435B684FF0804243F0200353604FF00C
:10151000804301225A614FF080435B684FF0804264
:1015200043F02003536000BFBD4680BC704700BF3E
:101530000010024080B400AF4FF080431B684FF0B2
:10154000804243F00103136000BFBD4680BC70477A
:1015500080B400AF4FF080431B684FF0804223F00F
:101560000103136000BFBD4680BC704780B500AF6B
:101570001B4BDB691A4A43F00203D361194B40F25B
:10158000CF229A62174B2222DA62164B1B68154A49
:1015900023F010031360134B1B68124A23F0080357
:1015A0001360104B5B680F4A23F0700353600D4BC0
:1015B0005B680C4A43F0200353600A4B01225A61D6
:1015C000084BDB68074A43F00103D36003211D2069
:1015D000FFF742FF1D20FFF723FF00BF80BD00BFC4
:1015E000001002400004004080B500AF444BDB69AE
:1015F000434A43F00403D361414B9B69404A43F0A3
:10160000080393613F4B1B683E4A23F04C53136021
:101610003C4B1B683B4A23F04C431360394B1B681F
:10162000384A43F008431360364BDB68354A43F0D1
:10163000C003D360344B4FF6FF72DA62324B9B69C2
:10164000314A43F4807343F0010393612E4B9B694D
:101650002D4A43F4005343F0200393612A4B1B6A45
:10166000294A23F002031362274B1B6A264A23F000
:1016700020031362244B9B68234A23F007039360E3
:10168000214B9B68204A43F0020393601E4B9B68EA
:101690001D4A23F0700393601B4B9B681A4A43F06A
:1016A00010039360184BDB69174A23F00303D361DF
:1016B000154BDB69144A43F00303D361124BDB691A
:1016C000114A23F00C03D3610F4BDB690E4A43F040
:1016D0002003D3610C4B1B6A0B4A43F480731362E3
:1016E000094BDB68084A43F00803D360064B4FF40C
:1016F00080625A621E20FFF793FE00BF80BD00BFCC
:1017000000100240000C01400008004080B400AF0F
:10171000044B1B68034A43F00103136000BFBD463E
:1017200080BC70470008004080B400AF044B1B68C9
:10173000034A23F00103136000BFBD4680BC70471D
:101740000008004080B400AF0C4B1B6903F001039C
:10175000002B0ED00A4B02221A70084B1B68074A56
:1017600023F001031360054B1B69044A23F00103B6
:10177000136100BFBD4680BC704700BF000400403D
:101780003002002080B400AF0F4B1B6903F0080348
:10179000002B15D00D4B01221A700B4BDB6B9AB24C
:1017A0000B4B1A80084B1B68DBB203F01003DAB254
:1017B000084B1A70044B1B69034A23F0080313619A
:1017C00000BFBD4680BC70470008004030020020CA
:1017D000320200201C02002080B483B000AF034618
:1017E000FB7197F90730002B0BDBFB7903F01F022D
:1017F000064997F907305B09012000FA02F241F827
:10180000232000BF0C37BD4680BC704700E100E0DC
:1018100080B483B000AF03463960FB7197F907309D
:10182000002B0ADB3B68DAB20C4997F9073012014A
:10183000D2B20B4483F800230AE03B68DAB20849CD
:10184000FB7903F00F03043B1201D2B20B441A766A
:1018500000BF0C37BD4680BC704700BF00E100E010
:1018600000ED00E080B500AF3C4B9B6903F0040342
:10187000002B05D1394B9B69384A43F0040393612F
:10188000364B9B6903F48043002B05D1334B9B6996
:10189000324A43F480439361314B5B68304A23F012
:1018A000C00353602E4B5B682D4A43F080035360A6
:1018B0002B4B5B682A4A23F030035360284B5B684C
:1018C000274A43F010035360254B5B68244A23F4F6
:1018D00040635360224B5B68214A43F400635360CA
:1018E0001F4BDB681E4A43F48063D3601C4B5B686C
:1018F0001B4A23F440735360184B9B6903F00103A8
:10190000002B05D1154B9B69144A43F001039361E9
:10191000144B5B68134A23F004035360124BDB68DB
:10192000114A23F48053D3600F4B1B690E4A23F4F2
:10193000405313610C4B4E229A600B4BDB680A4AF2
:1019400043F4005343F02C03D36001212520FFF71B
:101950005FFF2520FFF740FF00BF80BD0010024061
:1019600000080140000001400038014080B483B00D
:1019700000AF78600B46FB70054A7B681360054A30
:10198000FB78137000BF0C37BD4680BC704700BFAA
:10199000380200203402002080B400AF0A4B1B68DC
:1019A00003F04003002B01D1002309E0064BAA22DB
:1019B0005A60054BDB68044A43F08003D36001237F
:1019C0001846BD4680BC70470038014080B400AF67
:1019D000324B1B6803F08003002B4DD0304B1B783B
:1019E000DAB2304B1B789A4237D22F4B1B682C4A05
:1019F0001278D2B213441B78AA2B0BD1274BAB22FF
:101A00005A60294B1B68264A1278D2B2134401222D
:101A10001A7031E0244B1B68214A1278D2B2134469
:101A20001B78AB2B0BD11D4BAB225A601E4B1B6896
:101A30001B4A1278D2B2134400221A701CE01A4BCF
:101A40001A68174B1B78DBB2591CC8B214490870CE
:101A500013441A78114B5A600EE0114B00221A7091
:101A6000104B00221A70104B00221A600B4BDB68DF
:101A70000A4A23F08003D360084B1B6803F020035D
:101A8000002B07D0094B01221A70044B5B68DAB2B5
:101A9000074B1A7000BFBD4680BC7047003801403C
:101AA0003C02002034020020380200203E020020C8
:101AB0003D020020002103E00B4B5B5843500431F2
:101AC0000A480B4B42189A42F6D30A4A02E0002316
:101AD00042F8043B084B9A42F9D3FFF777F900F03C
:101AE000C7FDFEF7D1FF7047A44B0008000000209F
:101AF000F8010020F80100208C030020FEE7002BF5
:101B00002DE9F0471D46BBBF03F100431D460023EE
:101B10002D2388B01446B8BF1446129A109E137035
:101B2000149BDDF84CA023F02008B8F1460F05D037
:101B3000B8F1450F00D10136022300E0032307AAC4
:101B4000049206AACDE902A2CDE9003622462B4630
:101B500000F04EFEB8F1470F074619D1119BDB0785
:101B60000ED500EB06090022002320462946FEF789
:101B70001BFF08B1CDF81C903022079B4B451ED3AC
:101B80003846079B159ADB1B136008B0BDE8F08749
:101B9000B8F1460F00EB0609E5D10378302B0AD1E6
:101BA0000022002320462946FEF7FEFE18B9C6F1A2
:101BB0000106CAF80060DAF800309944D3E7591CEE
:101BC00007911A70D9E7F7B50029B6BF2D232B234B
:101BD000494209290270437029DD0DF107031D46B2
:101BE0000A27B1FBF7F61A4607FB1614303402F841
:101BF000014C0C46632C314603F1FF33F1DC3031EC
:101C0000941E03F8011C2346411CAB420AD30DF17C
:101C100009039B1AAC4288BF002302330344181AFD
:101C200003B0F0BD13F8016B01F8016FEDE730234D
:101C300030318370C170031DF1E700002DE9F04FD2
:101C400091B00C46DDF8688016461F46054600F048
:101C5000BFFC036818460893FEF77AFA00230E9338
:101C6000D8F800300990073323F0070303F1080286
:101C700094F818A0D4F800B0C8F80020D3E900897F
:101C800029F000430B93CDF828804FF0FF32DDE9B7
:101C90000A01C4E912899C4BFEF7B8FE70BBDDE96E
:101CA0000A014FF0FF32984BFEF792FE30BB002244
:101CB000002340464946FEF781FE10B12D2384F8EB
:101CC0004330924A924BBAF1470F8CBF90469846E8
:101CD00003234FF0000923612BF0040323603346F4
:101CE0002146284600970FAA00F0D4F9013040F0B1
:101CF00090804FF0FF3011B0BDE8F08F42464B4668
:101D000040464946FEF782FE48B14B46002BB8BF1D
:101D10002D23804AB8BF84F843307F4BD3E76368F4
:101D20000AF0DF015A1C3FD10623636000224BF406
:101D30008063236006920EAACDE904A20DAA039245
:101D40000DF13302CDE90132636842460093284623
:101D50004B460A91FFF7D3FE0A99804647290D9911
:101D600028D1C81C02DB6368994240DDAAF1020A4F
:101D70005FFA8AFA5246013904F150000D91FFF7DB
:101D800022FF0E9A81461318012A236102DC226881
:101D9000D20701D5013323619DF83330002B9ED04B
:101DA0002D2384F843309AE74729BFD1002BBDD1BA
:101DB0000123BAE7BAF1650FDCD9BAF1660F18D181
:101DC000002963680BDD216113B92268D00702D5B1
:101DD00001330B4423614FF00009A165DCE713B91F
:101DE0002268D20701D50233F4E70123F2E74FF06E
:101DF000670A0E9B994205DB23682161D807EAD563
:101E00004B1CE7E70029CCBF0122C1F102021344B9
:101E1000E0E723685A0507D423694246314628463D
:101E2000B84701302BD164E7BAF1650F40F2DC808E
:101E3000D4E9120100220023FEF7B6FD002833D0BA
:101E4000012331462846354AB84701303FF451AFA7
:101E5000DDE90D38434502DB2368D8070FD5DDE9FE
:101E6000082331462846B84701303FF442AF4FF0CF
:101E7000000908F1FF3804F11A0AC84509DC236893
:101E80009B0700F10281E0680F9B9842B8BF18469B
:101E900031E70123524631462846B84701303FF426
:101EA00028AF09F10109E8E70D9B002B38DC01237D
:101EB00031462846194AB84701303FF41AAFDDE9E8
:101EC0000D3959EA030302D12368D907D7D5DDE9D3
:101ED000082331462846B84701303FF40AAF4FF097
:101EE000000A04F11A0B0D9B5B42534501DC4B4683
:101EF00093E701235A4631462846B84701303FF45C
:101F0000F8AE0AF1010AEEE7FFFFEF7F2448000870
:101F1000204800082C4800082848000830480008DD
:101F2000A36DDDF838A05345A8BF5346002B994652
:101F300036DC4FF0000B29EAE97904F11A02A36DAF
:101F40000A93A3EB09035B4531DC0D9B9A453ADC10
:101F50002368DA0737D40D9BAAEB03090A9BAAEB87
:101F600003039945A8BF9946B9F1000F33DC4FF040
:101F7000000829EAE97904F11A0B0D9BAAEB030387
:101F8000A3EB090343457FF77AAF01235A46314655
:101F90002846B84701303FF4ACAE08F10108ECE741
:101FA000424631462846B8470130C2D1A1E6012356
:101FB000314628460A92B84701303FF49AAE0A9A51
:101FC0000BF1010BBBE73146DDE908232846B84792
:101FD0000130C0D18DE60A9A4B463146284642442C
:101FE000B8470130C3D184E6DDF838A0BAF1010F5B
:101FF00001DCDB0736D50123424631462846B84787
:1020000001303FF476AEDDE9082331462846B84773
:1020100001303FF46EAED4E91201002200230AF130
:10202000FF3AFEF7C1FCC0B9534608F10102314640
:102030002846B84701300CD15BE601235A463146A9
:102040002846B84701303FF454AE08F10108D045A6
:10205000F3DB4B4604F15002E0E64FF0000804F1D8
:102060001A0BF4E701234246E1E701234A463146D1
:102070002846B84701303FF43CAE08F10108E36858
:102080000F995B1A4345F0DCFDE64FF0000804F1C0
:102090001909F4E72DE9F047164698468A680B6956
:1020A00007469342B8BF1346336091F843200C466D
:1020B000DDF820900AB1013333602368990642BFEE
:1020C000336802333360256815F0060506D104F144
:1020D000190AE36832689B1AAB422BDC94F8433050
:1020E0002268003B18BF0123920630D4414638468F
:1020F00004F14302C847013023D02368226903F06A
:102100000603042B14BF002533684FF0000608BFF8
:10211000E56804F11A0408BFED1A54F8123C08BF30
:1021200025EAE5759342C4BF9B1AED18B5421AD152
:10213000002008E00123524641463846C847013096
:1021400003D14FF0FF30BDE8F0870135C1E7302003
:10215000E11881F843005A1C94F8451022440233D8
:1021600082F84310C2E70123224641463846C84759
:102170000130E6D00136D9E72DE9FF470F7E9146C1
:10218000782F80460C469A460C9E01F1430207D8F0
:10219000622F0AD8002F00F0D180582F00F0B880AD
:1021A00004F1420684F842703AE0A7F16303152B6C
:1021B000F6D801A151F823F01122000825220008C9
:1021C000A1210008A1210008A1210008A1210008E7
:1021D00025220008A1210008A1210008A121000852
:1021E000A1210008232300084F220008DD22000857
:1021F000A1210008A121000845230008A121000811
:102200004F220008A1210008A1210008E5220008B2
:1022100033681A1D1B68326004F1420684F84230AC
:1022200001239CE033682068191D3160060601D542
:102230001D6803E04506FBD5B3F90050002D03DA15
:102240002D236D4284F843300A23584811E0216859
:102250003368080653F8045B02D4490648BFADB2A0
:102260006F2F336014BF0A2308235048002184F8DD
:1022700043106668002EA66005DB21682E4321F01E
:10228000040121604BD01646B5FBF3F103FB115757
:10229000C75D06F8017D2F46BB420D46F4D9082BD9
:1022A0000BD12368DF0708D5236961689942DEBF37
:1022B000302306F8013C06F1FF36921B22614B46A3
:1022C00021464046CDF800A003AAFFF7E3FE013007
:1022D0004AD14FF0FF3004B0BDE8F087236843F0E7
:1022E000200323607827324884F8457023683168DA
:1022F0001F0651F8045B02D45F0648BFADB23160DF
:10230000D90744BF43F0200323601DB11023ADE77C
:102310002648E9E7236823F020032360F6E7164602
:10232000BDE733682568181D616930602E061B689B
:1023300001D5196002E06806FBD519800023164616
:102340002361BCE7336800211A1D32601E68626891
:10235000304600F0B4F908B1801B60606368236107
:10236000002384F84330AAE73246494640462369B1
:10237000D0470130ADD023689B0713D4E068039B9E
:102380009842B8BF1846A6E7012332464946404660
:10239000D04701309DD00135E36803995B1AAB4209
:1023A000F2DCEBE7002504F11906F5E732480008F6
:1023B00043480008002310B50446C0E90033C0E9D3
:1023C0000433836081814366C28183611946082298
:1023D0005C3000F0F4F80D4B246263620C4BA36296
:1023E0000C4BE3620C4B23630C4B9C4206D003F175
:1023F0006802944202D0D0339C4205D104F15800C7
:10240000BDE8104000F058B910BD00BF39250008E4
:102410005B25000893250008B7250008400200202E
:10242000024A0349034800F069B800BF30000020A9
:10243000893D00084000002041680C4B10B59942CE
:10244000044601D001F0A0FCA168094B994202D0DA
:10245000204601F099FCE168064B994204D02046E1
:10246000BDE8104001F090BC10BD00BF400200204C
:10247000A80200201003002010B50B4B0B4C0C4A97
:1024800020461A6004210022FFF794FF04F168003F
:1024900001220921FFF78EFF04F1D0000222BDE8DE
:1024A00010401221FFF786BF780300204002002071
:1024B00021240008014800F000B900BF810300207A
:1024C000014800F0FBB800BF8103002010B50446AE
:1024D000FFF7F0FF236A1BB1BDE81040FFF7F0BF24
:1024E000044B2362044B1B68002BF5D1FFF7C4FF9C
:1024F000F2E700BF39240008780300202DE9F843F3
:102500000746884614460026D4E90195B9F1010929
:1025100005D52468002CF7D13046BDE8F883AB8997
:10252000012B07D9B5F90E30013303D029463846BF
:10253000C04706436835E9E710B50C46B1F90E10FF
:1025400000F06CF80028ABBF636DA3891B1823F45F
:102550008053ACBF6365A38110BD2DE9F0411F46D8
:102560008B890546DB050C46164605D5022300225D
:10257000B1F90E1000F040F8A389324623F48053DD
:10258000A38128463B46B4F90E10BDE8F04100F0A7
:1025900057B810B50C46B1F90E1000F02DF8431CD9
:1025A000A38915BF606523F4805343F48053A3814E
:1025B00018BFA38110BDB1F90E1000F00DB803468D
:1025C0000244934200D1704703F8011BF9E7000071
:1025D000004870477C01002038B50023054D0446B3
:1025E00008462B60FEF78BFB431C02D12B6803B11E
:1025F000236038BD7C03002038B5044608461146E8
:102600000022054D2A601A46FEF79DFB431C02D1AD
:102610002B6803B1236038BD7C03002038B5044625
:10262000084611460022054D2A601A46FEF72EFB89
:10263000431C02D12B6803B1236038BD7C0300200A
:1026400038B50446084611460022054D2A601A4650
:10265000FEF739FB431C02D12B6803B1236038BD60
:102660007C030020014B1868704700BF3C0000202D
:1026700070B500260C4D0D4C641BA410A64209D168
:1026800001F0CEFE00260A4D0A4C641BA410A6429F
:1026900005D170BD55F8043B98470136EEE755F873
:1026A000043B98470136F2E79C4B00089C4B00081E
:1026B0009C4B0008A04B00087047704770470346CA
:1026C00010B5C9B202449342184601D1002003E07C
:1026D000047801338C42F6D110BD2DE9F74F036920
:1026E0000C690746A3427EDB013CA30000F1140500
:1026F00001F11408009305EB8403019358F824308A
:1027000055F8242001339A42B2FBF3F608EB840912
:102710002ED34FF0000AC446AE46D3465CF8043BC5
:1027200098B206FB00A01B0C020C06FB0323DEF88C
:10273000002080B292B2121A5A44DEF800004FEA2A
:10274000134A9BB2C3EB224303EB104392B242EA1B
:102750000342E1454FEA234B4EF8042BDED2009BA7
:10276000EB582BB9019B043B9D421A462FD33C6189
:10277000384601F081F9002825DB2946002058F869
:10278000042BD1F800C01FFA82FE1FFA8CF3A3EBD2
:102790000E030344120CC2EB234202EB1C429BB219
:1027A00043EA0243C1454FEA224041F8043BE6D2E6
:1027B00055F8242005EB840322B9043B9D421A46B8
:1027C0000BD33C610136304603B0BDE8F08F126890
:1027D000043B002ACBD1013CC6E71268043B002A27
:1027E000EFD1013CEAE70020EEE700000000000026
:1027F0002DE9F04F14461D46C76997B08146CDE9D3
:102800000645239E7FB9102000F00EFE0246C9F84F
:102810001C0020B9EF21AC4BAC4801F0FBFAC0E939
:1028200001770760C760D9F81C30196859B15A6838
:10283000012393404A608B60484600F0EBFE002283
:10284000D9F81C301A602B1EAFBF0023012223F0E1
:1028500000430793A8BF3360DDF81C809C4BB8BFD2
:10286000326033EA080312D142F20F73229A1360E6
:10287000C8F31303234300F05E85249BDFF854A2C2
:10288000002B00F060850AF1030300F05ABDDDE97A
:102890000623CDE90C23DDE90C0100220023FEF71D
:1028A00083F8074658B10123229A1360249B13B181
:1028B000894B249A1360DFF824A200F044BD14ABC6
:1028C000019315AB00934846DDE90C2301F084F930
:1028D000C8F30A560390002E78D0DDE90C010D9B59
:1028E000A6F2FF36C3F3130343F07F5343F44013C0
:1028F0001297194600227A4BFDF736FC6CA3D3E9F8
:102900000023FDF7E9FD6CA3D3E90023FDF72EFCBE
:10291000044630460D46FDF775FD69A3D3E9002353
:10292000FDF7DAFD02460B4620462946FDF71EFC60
:1029300004460D46FEF780F8002207460023204695
:102940002946FEF73BF840B13846FDF75BFD2246CD
:102950002B46FEF729F800B9013F162F54D8DDE9C0
:102960000C01604B03EBC703D3E90023FEF726F805
:1029700000284BD00023013F0F93149B9B1B5A1E32
:1029800049BFC3F10103002304930023099254BFFC
:1029900004930993002F3BDB099B0E973B4409935B
:1029A00000230A93209B092B65D8052BC4BF043B49
:1029B0002093209BC8BF0024A3F10203D8BF0124A9
:1029C000032B64D8DFE803F05355382CDDE914639A
:1029D0001E4406F23243202BC1BFC3F1400308FA64
:1029E00003F806F2124324FA03F3D6BFC3F120031F
:1029F00048EA030004FA03F0FDF7F4FC0122A1F118
:102A0000F873013E129274E70123B5E70F90B4E723
:102A1000049BDB1B04937B420A9300230E93C1E7C4
:102A200001230B93219B07EB030B0BF10103012BFC
:102A30000893B8BF012306E001230B93219B002BD1
:102A400028DD9B46089300210422D9F81C0002F1DE
:102A500014059D4226D94160484600F09BFD824600
:102A6000002843D1024640F2AF111F4BD4E60023A9
:102A7000E3E70023D5E7012400230B9420934FF0D4
:102A8000FF3B00221223CDF820B02192DBE7012387
:102A90000B93F4E74FF0010B5B46CDF820B0CDF877
:102AA00084B0D0E701315200D1E700BFAFF300801E
:102AB00061436F63A787D23FB3C8608B288AC63F44
:102AC000FB799F501344D33F6148000878480008C1
:102AD0000000F07F5D4800083148000830480008D9
:102AE0000000F83FC8490008D0480008D9F81C3059
:102AF0001860089B0E2B00F2A180002C00F09E8035
:102B0000002F33DD9C4B07F00F0203EBC203F805E7
:102B1000D3E90034CDE910344FEA271416D5DDE9A6
:102B20000C01964B0326D3E90823FDF7FFFDCDE901
:102B3000060104F00F04914D54B9DDE91023DDE9DD
:102B40000601FDF7F3FDCDE9060128E00226F2E7D4
:102B5000E10708D5DDE91001D5E90023FDF7BCFC4C
:102B6000CDE91001013664100835E5E700F0AF80CB
:102B7000DDE90C017C42804B04F00F0203EBC20341
:102B8000D3E90023FDF7A8FC02260023CDE90601C6
:102B90007A4D2411002C40F08F80002BD3D1DDE939
:102BA00006450F9B002B00F094800022204629460A
:102BB000734BFDF703FF002800F08B80089B002B70
:102BC00000F08780BBF1000F34DD2046002229464B
:102BD0006C4BFDF781FC5C46CDE9060107F1FF383F
:102BE00001363046FDF70EFCDDE90623FDF774FCE7
:102BF0000022654BFDF7BAFA0546A1F15076002C8C
:102C00006AD1DDE906010022604BFDF7ADFA02460C
:102C10000B46CDE906232A463346FDF7EDFE002894
:102C200040F09882DDE906012A4606F10043FDF7EF
:102C3000C5FE38BBDDE90C34CDE90634159B002B0D
:102C4000C0F257810E2F00F354814B4B03EBC703A7
:102C5000D3E90034CDE90434219B002B80F2E580D8
:102C6000089B002B00F3E1800CD1DDE90401002278
:102C7000464BFDF731FCDDE90623FDF7B3FE0028E6
:102C800000F0668200242546219B56466FEA030821
:102C900000272146484600F0BDFC002D00F0BD8015
:102CA0002FB1AF4203D03946484600F0B3FC294665
:102CB000484600F0AFFCB0E0E20705D5D5E90023B7
:102CC000FDF70AFC012301366410083562E702268D
:102CD00065E7B846089C84E7274B0B9903EBC403D0
:102CE00053E902235444002954D000202849FDF719
:102CF0001DFD33462A46FDF737FA5646CDE9100149
:102D0000DDE90601FDF798FE0546FDF77BFB02466F
:102D10000B46DDE90601FDF727FA02460B46303582
:102D2000CDE90623DDE9102306F8015BFDF746FE39
:102D3000002872D1DDE9062300201149FDF714FABD
:102D4000DDE91023FDF73AFE002840F0B480A642EA
:102D50003FF470AFDDE9100100220A4BFDF7BCFB28
:102D60000022CDE91001DDE90601064BFDF7B4FBB9
:102D7000CDE90601C4E700BFC8490008A049000822
:102D80000000F03F0000244000001C400000144000
:102D90000000E03F31462846FDF79EFB5646CDE950
:102DA00010011394DDE90601FDF746FE0546FDF727
:102DB00029FB02460B46DDE90601FDF7D5F902467F
:102DC0000B46303506F8015BA642CDE906234FF0ED
:102DD000000224D1DDE91001AE4BFDF7C7F9024630
:102DE0000B46DDE90601FDF707FE002863D1DDE9AA
:102DF00010230020A749FDF7B7F902460B46DDE98D
:102E00000601FDF7DBFD00283FF414AF139E731E8F
:102E1000139316F8013C302BF8D047463BE09E4B0D
:102E2000FDF75AFBCDE90601BCE75646DDE906454C
:102E3000DDE9042320462946FDF778FCFDF7FCFD7B
:102E40008046FDF7DFFADDE90423FDF745FB024686
:102E50000B4620462946FDF787F908F13004089D06
:102E600006F8014BA6EB0A04A54202460B4633D1F5
:102E7000FDF77CF9DDE9042304460D46FDF7BCFDB2
:102E8000C0B9DDE9042320462946FDF78DFD10B1C8
:102E900018F0010F0ED14846039900F0BBFB002348
:102EA0003370229B01371F60249B002B00F04B8264
:102EB0001E6048E2B84633461E4613F8012D392AF3
:102EC00006D19A45F8D1302208F101088AF800208D
:102ED0001A7801321A70A0E700226F4BFDF7FCFA56
:102EE0000022002304460D46FDF75EFD00289FD01A
:102EF000D1E70B9A002A00F0EA80209A012A00F319
:102F0000CD80129A002A00F0C18003F233430A9C5C
:102F1000049E049A01211A440492099A48461A44CC
:102F2000099200F02BFC054666B1099B002B09DDD8
:102F3000B342A8BF3346049AF61AD21A0492099AE9
:102F4000D31A09930A9B0BB30B9B002B00F0C6808E
:102F5000002C00F0C08029462246484600F0C6FCFE
:102F6000039A01460546484600F01EFC0399804638
:102F7000484600F04FFB0A9B1B1B0A9300F0B180F0
:102F800041460A9A484600F0B1FC039001214846A8
:102F900000F0F4FB0E9B0446002B00F0D8811A468B
:102FA0000146484600F0A2FC209B0446012B00F39A
:102FB0009F80069B002B40F09780079BC3F3130371
:102FC000002B40F09380079B23F000431B0D1B0553
:102FD00033B1049B01330493099B0133099301230B
:102FE0000A930E9B002B00F0B881236904EB830346
:102FF000186900F077FBC0F12000099B184410F01D
:103000001F0000F08280C0F12003042B73DD049BBD
:10301000C0F11C0003440493099B06440344099334
:10302000049B002B05DD1A464846039900F0B8FCC6
:103030000390099B002B05DD21461A46484600F007
:10304000AFFC04460F9B002B61D02146039800F093
:1030500013FD00285BDA00230A224846039900F09A
:10306000FBFA0B9B07F1FF380390002B00F07781F0
:10307000294600230A22484600F0EEFABBF1000F71
:1030800005466FDC209B022B49DC6BE0149BC3F1EF
:1030900036033CE70000E03F00002440089B5C1E34
:1030A0000A9BA34209DB1C1B089B002BBFF630AF19
:1030B000049B089A9E1A00232BE70A9B0E9AE31A98
:1030C0001A440A94049E0024089B0E9221E70A9C4D
:1030D000049E0B9D28E7DDF80C8051E70A9A0399BE
:1030E00050E7CDF80C8051E7002379E7069B77E79E
:1030F00000230A9379E793D0049A1C331A4404926C
:10310000099A1E441A4409928AE70346F4E7089B89
:10311000B846002B20DC9B46209B022B1EDDBBF11A
:10312000000F7FF4B1AD21465B460522484600F012
:1031300093FA01460446039800F09EFC00287FF7AE
:10314000A3AD5646312308F1010806F8013B9FE57F
:10315000B846089C2546F4E7DDF820B00B9B002B11
:1031600000F00181002E05DD29463246484600F078
:1031700017FC05460A9B002B5CD04846696800F0A6
:1031800009FA064628B9024640F2EF21804BFFF7C4
:1031900043BB2A6905F10C01023292000C3000F0A9
:1031A0002BFE01223146484600F0FAFB2F46054629
:1031B0000AF1010304930AEB0B030A93069B03F045
:1031C00001030993049B2146039803F1FF3BFFF79A
:1031D00084FA034639463033069003980B9300F087
:1031E0004BFC2A4608902146484600F061FCC26824
:1031F00006460B9B02BB0146039800F03DFC0246CD
:103200000B9B31464846CDE90B3200F003FA209B78
:103210000C9A049E42EA0301099B19430B9B0DD1B2
:10322000392B27D0089A002A01DD069B31338BF811
:1032300000302EE52846B9E70122E2E70899002987
:1032400004DB209801430998014320D1002AEEDDD8
:10325000012203994846049300F0A2FB2146039003
:1032600000F00AFC0028049B02DCE0D1DA07DED57E
:10327000392BDAD139238BF8003033461E4616F845
:10328000012C013B392A4ED001321A7001E5002A87
:1032900003DD392BEED00133C9E7049A0A9902F80D
:1032A000013C8A4228D000230A220399484600F0B4
:1032B000D3F9AF4203904FF000034FF00A023946B2
:1032C000484607D100F0C8F907460546049B01337C
:1032D000049377E700F0C0F92946074600230A2245
:1032E000484600F0B9F90546F0E7BBF1000FCCBF46
:1032F0005E4601260027564401220399484604935E
:1033000000F04EFB2146039000F0B6FB0028B4DC31
:1033100002D1049BDB07B0D433461E4613F8012DBF
:10332000302AFAD0B5E49A45A8D1312308F1010832
:103330008AF80030ADE4249BDFF858A01BB10AF1F5
:103340000803249A1360504617B0BDE8F08F209B05
:10335000012B7FF72EAE0E9B0A9301204DE6BBF1A9
:10336000000F7FF7D9AE564621460398FFF7B5F90F
:1033700000F1300306F8013BA6EB0A029345B4DDE9
:1033800000230A224846039900F066F90390EBE710
:10339000D04800085448000838B50546002940D0F8
:1033A00051F8043C0C1F002BB8BFE41800F0E6F8FD
:1033B0001C4A136833B9636014602846BDE838407E
:1033C00000F0E2B8A34208D9206821188B4201BF5F
:1033D00019685B6809182160EDE71A465B680BB154
:1033E000A342FAD911685018A0420BD120680144B9
:1033F000501883421160E0D118685B68084410607F
:103400005360DAE702D90C232B60D6E72068211835
:103410008B4201BF19685B680918216063605460C2
:10342000CBE738BD88030020024B0146186800F046
:1034300025B800BF3C00002070B50F4E0C46316827
:10344000054611B900F0C8FC30602146284600F05E
:10345000C3FC431C03D14FF0FF34204670BDC41C95
:1034600024F00304A042F8D0211A284600F0B4FC4E
:103470000130F2D1EFE700BF840300202DE9F843CB
:10348000CD1C25F0030508350C2D38BF0C25002D6B
:10349000064601DBA94204D90C2333600020BDE8B5
:1034A000F883DFF8D48000F069F8D8F800301C46C3
:1034B00044BB29463046FFF7BFFF431C044658D1A2
:1034C000D8F800402746002F43D1002C4BD023686A
:1034D0003946304604EB030900F07EFC814542D1B9
:1034E000216830466D1A2946FFF7A6FF01303AD011
:1034F00023682B442360D8F800305A6862BBC8F8B0
:1035000000700FE02268521B20D40B2A17D96119D2
:10351000A342256018BF5960636808BFC8F800104F
:1035200062514B60304600F02FF804F10B00231D70
:1035300020F00700C21A1CBF1B1AA350AFE7626835
:10354000A3420CBFC8F800205A60EBE7234664682A
:10355000AEE73C467F68B6E71A465B68A342FBD1FC
:1035600000235360DEE70C233046336000F00CF894
:1035700094E70560D6E700BF880300200148FFF705
:103580009CB800BF800300200148FFF797B800BF38
:103590008003002070B5C66904460D4676B9102038
:1035A000FFF742FF0246E06120B96B21174B184834
:1035B00000F030FCC0E901660660C660E669F368A9
:1035C00083B1E369DB6853F82500B8B9012101FA3A
:1035D00005F6721D2046920000F03AFC60B1C0E989
:1035E00001560EE021220421204600F031FCE3695F
:1035F000F060DB68002BE4D1002070BD026843F866
:1036000025200023C0E90333F7E700BF6148000825
:10361000E148000870B5C66905460C4676B9102029
:10362000FFF702FF0246E86120B98F21084B0948E5
:1036300000F0F0FBC0E901660660C6603CB1EB69D2
:103640006268DB6853F82210216043F8224070BDA5
:1036500061480008E14800082DE9F04107460C46A2
:103660001E4600200D6901F1140CDCF80030013019
:1036700099B202FB01611E0C0B0C02FB063389B2EE
:1036800001EB034185424FEA13464CF8041BECDC86
:103690000EB3A368AB4219DC616838460131FFF70D
:1036A00079FF804628B90246BA210C4B0C4800F03D
:1036B000B1FB226904F10C01023292000C3000F0DF
:1036C0009BFB21463846FFF7A5FF444604EB8503E4
:1036D00001355E6125612046BDE8F081D0480008D3
:1036E000E14800080346B0F5803F3ABF03041020CC
:1036F0000020B3F1807F3CBF1B020830B3F1805F34
:103700003CBF1B010430B3F1804F3CBF9B00023033
:10371000002B05DB13F0804F00F1010008BF2020D3
:1037200070470368024613F007000BD0D90721D475
:10373000980749BF5B089B08012013605CBF02200B
:103740001360704799B209B910201B0CD9B209B99E
:1037500008301B0A190704BF1B090430990704BF6E
:103760009B080230D90703D45B0800F1010003D0A5
:1037700013607047002070472020704710B50C463A
:103780000121FFF707FF024628B940F24511044B1B
:10379000044800F03FFB01234461036110BD00BFFA
:1037A000D0480008E14800082DE9F04F17460A69A3
:1037B0003B6989469A42A2BF3B460F4699463D69FE
:1037C000D9F810A0BB68796805EB0A06B34285B04A
:1037D000B8BF0131FFF7DEFE30B902464FF4B171D8
:1037E000404B414800F016FB00F114042346002230
:1037F00004EB860E734520D307F1140809F1140178
:1038000008EB850501EB8A030293EB1B153B23F0C4
:10381000030304331537BD4238BF04230193029BD1
:1038200003918B420CD8002E03DD5EF8043D002B83
:1038300055D0066105B0BDE8F08F43F8042BD9E7F9
:10384000B1F800A0BAF1000F1FD0C446A14600276E
:103850005CF8042BD9F800301FFA82FB9BB20AFBFC
:103860000B333B44D9F80070120C3F0C0AFB027278
:1038700002EB13429BB243EA024365454FEA12470B
:1038800049F8043BE4D8019BE750039B0431B3F8AB
:103890000290B9F1000F20D04746A4464FF0000A2D
:1038A0002368B7F800B0BCF802209BB209FB0B22DA
:1038B000524443EA02434CF8043B57F8043B4FEAB6
:1038C000134ABCF80030BD4209FB0A3303EB124334
:1038D0004FEA134AE5D8019AA35004349FE7013E0A
:1038E000A1E700BFD0480008E14800082DE9F843EF
:1038F000154612F0030207460E4607D0254C013A42
:10390000002354F82220FFF7A7FE0646AD103DD055
:10391000FC697CB91020FFF787FD0246F86128B9E1
:1039200040F2B3111C4B1D4800F074FAC0E9014489
:103930000460C460D7F81C80D8F808404CB940F245
:1039400071213846FFF71AFF00230446C8F8080023
:1039500003604FF00009EB070AD53146224638468E
:10396000FFF722FF804631463846FFF753FE4646B2
:103970006D100BD0206838B9224621463846FFF733
:1039800013FF2060C0F800900446E4E73046BDE82D
:10399000F88300BF9449000861480008E148000826
:1039A0002DE9F0470C46074691462369496803EB29
:1039B0006218A3684FEA621A08F10106B3420BDBF2
:1039C0003846FFF7E7FD054648B902464FF4EF7168
:1039D000274B284800F01EFA01315B00EEE7002378
:1039E00000F1140100F110021846534533DB206941
:1039F0002AEAEA7A04F1140319F01F0901EB8A019B
:103A000003EB800C2BD08A460022C9F1200E1868E7
:103A100000FA09F010434AF8040B53F8042B9C45B4
:103A200022FA0EF2F3D8ACEB0403153B23F00303A8
:103A3000043304F11500604588BF0423CA500AB15D
:103A400008F10206013E384621462E61FFF7E2FDED
:103A50002846BDE8F08742F8040F0133C5E7043972
:103A600053F8042B9C4541F8042FF9D8EAE700BF2E
:103A7000D0480008E148000803460A69006930B5EB
:103A8000801A0ED11433143103EB820401EB82014E
:103A900054F8045D51F8042D954203D005D24FF03F
:103AA000FF3030BDA342F3D3FBE70120F9E700006C
:103AB0002DE9F74F89460646114648461446FFF75A
:103AC000DBFF051E12D129463046FFF763FD024693
:103AD00028B940F237213E4B3E4800F09BF90123C4
:103AE000C0E90435104603B0BDE8F08FBCBF4B46BB
:103AF000A1463046D9F80410BABF1C46012500255E
:103B0000FFF748FD024618B940F24521304BE3E784
:103B100000F1140BD9F8107009F11003C5604FF0D3
:103B2000000C09F11405D946266904F1140E05EBC1
:103B300087080EEB86060193019B5EF8040B53F891
:103B400004AF81B201931FFA8AF35B1A000C63443D
:103B5000C0EB1A4000EB23409BB243EA004376459A
:103B60004FEA204C49F8043BE6D8331B153B23F0C1
:103B7000030315340433A64238BF04231D445B44B9
:103B80001E462C4644450ED308F10301491B21F083
:103B90000301033DA84538BF00210B4453F8041D21
:103BA00099B117619EE7E64654F8041B1FFA81FCA1
:103BB000F444080C714400EB2C4089B241EA004106
:103BC0004FEA204C46F8041BDCE7013FE6E700BF64
:103BD000D0480008E14800082DE9734301219046D0
:103BE0009946089EFFF7D6FC044630B9024640F2DB
:103BF0000F31234B234800F00DF9C9F30A55C9F3DF
:103C000013030DB143F480130193B8F1000324D0E2
:103C100068460093FFF785FDDDE90012D8B1C0F1D9
:103C2000200302FA03F30B43C24063610192019B3C
:103C3000002B0CBF01220222A3612261ADB1A5F2CB
:103C4000334505443560C0F13500099B18602046B6
:103C500002B0BDE870836161E9E701A8FFF761FD8B
:103C6000019B012263612030E7E7A0F2324004EBC0
:103C7000820330601869FFF735FDC0EB4210E4E7BE
:103C8000D0480008E1480008B1F90C20F8B5160743
:103C900005460C4654D44B68002B02DC0B6C002B01
:103CA00048DDE66A002E45D0002312F480522F68CA
:103CB000216A2B6030D0626DA389590705D56368EE
:103CC000D21A636B0BB1236CD21A00232846E66A22
:103CD000216AB047431CA38906D129681D292BD826
:103CE000284ACA40D60727D5002262602269D90433
:103CF000226004D5421C01D12B6803B96065616B59
:103D00002F60B9B104F14403994202D02846FFF76D
:103D100043FB002363630DE001232846B0470246BE
:103D2000501CC9D12B68002BC6D01D2B01D0162BDF
:103D30001DD12F60002021E043F040031BB21AE0A8
:103D40000F69002FF6D0930718BF00230E6808BF35
:103D50004B69F61B0F608B60002EEBDD33463A4655
:103D60002846216AD4F828C0E047002807DCB4F9C7
:103D70000C3043F040034FF0FF30A381F8BD0744FF
:103D8000361AE9E70100402038B50B6905460C46B4
:103D900013B90025284638BD18B1036A0BB9FEF7E0
:103DA00095FBB4F90C30002BF3D0626ED00704D42D
:103DB000990502D4A06DFEF780FC28462146FFF746
:103DC00063FF636E0546DA07E4D4A3899B05E1D45B
:103DD000A06DFEF773FCDDE738B50023054D044602
:103DE00008462B60FCF7BCFF431C02D12B6803B1D3
:103DF000236038BD7C0300200A44914200F1FF3368
:103E000000D1704710B511F8014B914203F8014FF2
:103E1000F9D110BD1FB514461A46094B05461B685B
:103E2000D8684CB1074BCDE9013400912B460649C7
:103E300000F042F800F052F8044B1C46F3E700BFD4
:103E40003C00002044490008514900087F4900080F
:103E500070B5A1FB025434B92946FFF70FFB0646A3
:103E600028B9304670BD0C2200260260F9E72A46C8
:103E70002146FEF7A4FBF4E782B001B901A942B1E3
:103E80004BB113780B601278101E18BF012002B0DE
:103E900070471046FBE76FF00100F8E7034608465D
:103EA00041B1FF2A04D98A224FF0FF301A607047CF
:103EB00001200A70704700000EB403B5014603AB41
:103EC000054853F8042B0068019300F035F802B060
:103ED0005DF804EB03B070473C000020062008B5F5
:103EE00000F0FEF90120FCF7C6FE936810B4013B18
:103EF000002B936007DA9469A34201DB0A2902D1FF
:103F000010BC00F031B91368581C106019700846D5
:103F100010BC7047F8B506460F461446D518AC429B
:103F200001D1002007E03A46304614F8011BFFF7A4
:103F3000DCFF431CF3D1F8BD2DE9F04F0D461446CC
:103F4000984606469DB018B1036A0BB9FEF7BEFA53
:103F50006B6ED90705D4AB899A0502D4A86DFEF71C
:103F6000ACFBAB891B0701D52B699BB929463046B1
:103F700000F038F970B16B6EDC0704D54FF0FF30FC
:103F80001DB0BDE8F08FAB899805F7D4A86DFEF79A
:103F900095FBF3E70023099320238DF82930302384
:103FA0004FF00109CDF80C80DFF8A8818DF82A3098
:103FB00023469A4613F8012B0AB1252AF9D1BAEB08
:103FC000040B0BD05B46224629463046FFF7A2FF82
:103FD000013000F0A780099A5A4409929AF80030FB
:103FE000002B00F09F8000234FF0FF32CDE9052326
:103FF0000AF1010A049307938DF853301A9354463B
:10400000052214F8011B5348FEF759FB049AD8B94E
:10401000D10644BF20238DF85330130744BF2B2310
:104020008DF853309AF800302A2B15D054460020D2
:104030004FF00A0C079A214611F8013B303B092B3F
:104040004BD9B0B1079214E0A0EB080309FA03F3CF
:104050001343A2460493D2E7039B191D1B680391E7
:10406000002BBBBF5B4242F0020207930793B8BF2D
:10407000049223782E2B0AD163782A2B32D1039B0A
:1040800002341A1D1B68039243EAE3730593DFF8B9
:10409000C8A0032250462178FEF711FB38B1402218
:1040A000049BA0EB0A00824013430134049314F8EC
:1040B000011B062229488DF82810FEF700FB002876
:1040C0003FD0274B1BBB039B073323F00703083369
:1040D0000393099B3B4409936AE70C4601200CFBC0
:1040E0000232A8E700234FF00A0C19460134059369
:1040F000204610F8012B303A092A03D9002BC6D0EC
:104100000591C4E7044601230CFB0121F0E703AB52
:1041100000932A463046134B04A9FDF78FFD07464E
:10412000781CD6D16B6ED90705D4AB899A0502D419
:10413000A86DFEF7C3FAAB895B063FF51FAF099880
:104140001EE703AB00932A463046064B04A9FEF750
:1041500013F8E4E780490008864900088A49000806
:104160003D1C0008153F0008F8B50E4614460546EC
:1041700018B1036A0BB9FEF7A9F9A369A360A38973
:104180001A0701D5236943B92146284600F02AF8C9
:1041900018B14FF0FF373846F8BD23682269F6B2F0
:1041A000981A63693746834205DC21462846FFF7A3
:1041B000EBFD0028EDD1A368013BA36023685A1CE6
:1041C00022601E706269431C9A4204D0A389DB07F7
:1041D000E1D50A2EDFD121462846FFF7D5FD00287C
:1041E000D9D0D6E738B5294B054618680C4618B122
:1041F000036A0BB9FEF76AF9B4F90C30190722D437
:10420000DA0607D409222A6043F040034FF0FF305A
:10421000A38133E0580712D5616B41B104F1440327
:10422000994202D02846FFF7B7F800236363A389B9
:1042300023F02403A3810023636023692360A389FF
:1042400043F00803A38123694BB9A38903F42073C6
:10425000B3F5007F03D02146284600F082F8B4F978
:104260000C3013F001020AD00022A26062695242AF
:10427000A261226942B913F08000C5D138BD990707
:1042800058BF6269A260F4E70020F7E73C00002015
:104290001F2938B505460C4604D9162303604FF094
:1042A000FF3038BDC26B12B152F821304BB92846ED
:1042B00000F030F8224601462846BDE8384000F0BC
:1042C00017B8012B0AD0591C03D116230360012013
:1042D000E7E70021204642F8241098470020E0E755
:1042E000024B01461868FFF7D3BF00BF3C00002017
:1042F00038B50023064D0446084611462B60FCF7EE
:10430000AAFC431C02D12B6803B1236038BD00BF57
:104310007C030020FCF798BC70B50C46B1F90E1078
:10432000154600291E4696B00CDAA389002113F029
:10433000800F14BF40234FF48063002031602B6056
:1043400016B070BD6A4600F049F80028EDDB01990F
:1043500001F47041A1F50053594259414FF4806373
:10436000EBE78B89F7B59D0706460C4607D504F1A8
:104370004703236023610123636103B0F0BD6A46F4
:1043800001ABFFF7C9FF009F054639463046FFF7EE
:1043900075F848B9B4F90C309A05EED423F003034C
:1043A00043F00203A381E2E7A389C4E9040743F0D1
:1043B0008003A381019B20605BB13046B4F90E10ED
:1043C00000F01EF828B1A38923F0030343F0010392
:1043D000A381A3891D43A581CFE7000038B5002341
:1043E000064D0446084611462B60FCF793FC431C1F
:1043F00002D12B6803B1236038BD00BF7C030020CD
:1044000038B50023054D044608462B60FCF791FCA7
:10441000431C02D12B6803B1236038BD7C0300200C
:10442000F8B500BFF8BC08BC9E467047F8B500BFA1
:08443000F8BC08BC9E46704771
:10443800FEFEFEFEFEFEFEFEFEFEFEFEFEFEFEFE94
:10444800FEFEFEFEFEFEFEFEFE0202020202020268
:104458000202020202020202020202020202020234
:104468000202FEFEFEFEFEFEFEFEFEFEFEFEFEFE5C
:10447800FEFEFEFEFEFEFEFEFEFEFE020202020240
:104488000202020202020202020202020202020204
:1044980002020202FEFEFEFEFEFEFEFEFEFEFEFE24
:1044A800FEFEFEFEFEFEFEFEFEFEFEFEFE02020218
:1044B80002020202020202020202020202020202D4
:1044C800020202020202FEFEFEFEFEFEFEFEFEFEEC
:1044D800FEFEFEFEFEFEFEFEFEFEFEFEFEFEFE02F0
:1044E80002020202020202020202020202020202A4
:1044F8000202020202020202FEFEFEFEFEFEFEFEB4
:10450800FEFEFEFEFEFEFEFEFEFEFEFEFEFEFEFEC3
:10451800FE02020202020202020202020202020277
:1045280002020202020202020202FEFEFEFEFEFE7B
:10453800FEFEFEFEFEFEFEFEFEFEFEFEFEFEFEFE93
:10454800FEFEFE020202020202020202020202024F
:10455800020202020202020202020202FEFEFEFE43
:10456800FEFEFEFEFEFEFEFEFEFEFEFEFEFEFEFE63
:10457800FEFEFEFEFE020202020202020202020227
:104588000202020202020202020202020202FEFE0B
:10459800FEFEFEFEFEFEFEFEFEFEFEFEFEFEFEFE33
:1045A800FEFEFEFEFEFEFE020202020202020202FF
:1045B80002020202020202020202020202020202D3
:1045C800FEFEFEFEFEFEFEFEFEFEFEFEFEFEFEFE03
:1045D800FEFEFEFEFEFEFEFEFE02020202020202D7
:1045E80002020202020202020202020202020202A3
:1045F8000202FEFEFEFEFEFEFEFEFEFEFEFEFEFECB
:10460800FEFEFEFEFEFEFEFEFEFEFE0202020202AE
:104618000202020202020202020202020202020272
:1046280002020202FEFEFEFEFEFEFEFEFEFEFEFE92
:10463800FEFEFEFEFEFEFEFEFEFEFEFEFE02020286
:104648000202020202020202020202020202020242
:10465800020202020202FEFEFEFEFEFEFEFEFEFE5A
:10466800FEFEFEFEFEFEFEFEFEFEFEFEFEFEFE025E
:104678000202020202020202020202020202020212
:104688000202020202020202FEFEFEFEFEFEFEFE22
:10469800FEFEFEFEFEFEFEFEFEFEFEFEFEFEFEFE32
:1046A800FE020202020202020202020202020202E6
:1046B80002020202020202020202FEFEFEFEFEFEEA
:1046C800FEFEFEFEFEFEFEFEFEFEFEFEFEFEFEFE02
:1046D800FEFEFE02020202020202020202020202BE
:1046E800020202020202020202020202FEFEFEFEB2
:1046F800FEFEFEFEFEFEFEFEFEFEFEFEFEFEFEFED2
:10470800FEFEFEFEFE020202020202020202020295
:104718000202020202020202020202020202FEFE79
:10472800FEFEFEFEFEFEFEFEFEFEFEFEFEFEFEFEA1
:10473800FEFEFEFEFEFEFE0202020202020202026D
:104748000202020202020202020202020202020241
:10475800FEFEFEFEFEFEFEFEFEFEFEFEFEFEFEFE71
:10476800FEFEFEFEFEFEFEFEFE0202020202020245
:104778000202020202020202020202020202020211
:104788000202FEFEFEFEFEFEFEFEFEFEFEFEFEFE39
:10479800FEFEFEFEFEFEFEFEFEFEFE02020202021D
:1047A80002020202020202020202020202020202E1
:1047B80002020202FEFEFEFEFEFEFEFEFEFEFEFE01
:1047C800FEFEFEFEFEFEFEFEFEFEFEFEFE020202F5
:1047D80002020202020202020202020202020202B1
:1047E800020202020202FEFEFEFEFEFEFEFEFEFEC9
:1047F800FEFEFEFEFEFEFEFEFEFEFEFEFEFEFE02CD
:104808000202020202020202020202020202020280
:104818000202020202020202494E4600696E660066
:104828004E414E006E616E00300030313233343507
:104838003637383941424344454600303132333403
:10484800353637383961626364656600496E666972
:104858006E697479004E614E005245454E54206D84
:10486800616C6C6F63207375636365656465640070
:104878002F6275696C642F676E752D746F6F6C731A
:104888002D666F722D73746D33325F31332E332E74
:1048980072656C312E32303234303932362D313740
:1048A80031352F7372632F6E65776C69622F6E6571
:1048B800776C69622F6C6962632F7374646C6962C8
:1048C8002F64746F612E630042616C6C6F63207398
:1048D8007563636565646564002F6275696C642F30
:1048E800676E752D746F6F6C732D666F722D737490
:1048F8006D33325F31332E332E72656C312E323088
:104908003234303932362D313731352F7372632FC7
:104918006E65776C69622F6E65776C69622F6C695A
:1049280062632F7374646C69622F6D707265632E95
:1049380063004300504F534958002E002C206675E1
:104948006E6374696F6E3A2000617373657274697F
:104958006F6E2022257322206661696C65643A2097
:1049680066696C6520222573222C206C696E65208F
:104978002564257325730A00232D302B2000686CCD
:104988004C006566674546470000000005000000CA
:10499800190000007D0000000080E03779C3414322
:1049A800176E05B5B5B89346F5F93FE9034F384D8D
:1049B800321D30F94877825A3CBF737FDD4F157539
:1049C800000000000000F03F00000000000024404C
:1049D80000000000000059400000000000408F4027
:1049E800000000000088C34000000000006AF84092
:1049F8000000000080842E4100000000D0126341B6
:104A08000000000084D797410000000065CDCD412B
:104A1800000000205FA00242000000E8764837420C
:104A2800000000A2941A6D42000040E59C30A242AA
:104A38000000901EC4BCD64200003426F56B0C431F
:104A48000080E03779C3414300A0D88557347643C6
:104A580000C84E676DC1AB43003D9160E458E14327
:104A6800408CB5781DAF154450EFE2D6E41A4B449C
:104A780092D54D06CFF08044F64AE1C7022DB544E1
:104A8800B49DD9794378EA440020202020202020B2
:104A980020202828282828202020202020202020E6
:104AA80020202020202020202088101010101010F6
:104AB8001010101010101010100404040404040442
:104AC80004040410101010101010414141414141DC
:104AD80001010101010101010101010101010101BE
:104AE80001010101101010101010424242424242CE
:104AF800020202020202020202020202020202028E
:104B08000202020210101010200000000000000035
:104B1800000000000000000000000000000000008D
:104B2800000000000000000000000000000000007D
:104B3800000000000000000000000000000000006D
:104B4800000000000000000000000000000000005D
:104B5800000000000000000000000000000000004D
:104B6800000000000000000000000000000000003D
:104B7800000000000000000000000000000000002D
:0C4B880000000000000000000000000021
:084B9400BCB5FF7F0100000029
:044B9C0035010008D7
:044BA00011010008F7
:104BA40080000000000000008800000000000000F9
:104BB4008100000000000000A200000000000000CE
:104BC40090000000000000009C000000ABAA000060
:104BD400000000000300000040020020400000200C
:104BE4000000000040020020A80200201003002062
:104BF40000000000000000000000000000000000B1
:104C040000000000000000000000000000000000A0
:104C14000000000000000000000000000000000090
:104C2400000000000000000000000000430000003D
:104C34000000000000000000000000000000000070
:104C4400000000000000000000000000430000001D
:104C54000000000000000000000000000000000050
:104C640000000000000000000000000043000000FD
:104C74000000000000000000000000000000000030
:104C840000000000000000000000000043000000DD
:104C94000000000000000000000000000000000010
:104CA40000000000000000000000000043000000BD
:104CB40000000000000000000000000000000000F0
:104CC400000000000000000000000000430000009D
:104CD40000000000000000000000000000000000D0
:104CE400000000000000000000000000430000007D
:104CF40000000000000000000000000000000000B0
:104D04000000000000000000000000009D3E0008BC
:104D1400793E000800000000904A0008424900085B
:104D24007F4900087F4900087F4900087F4900083F
:104D34007F4900087F4900087F4900087F4900082F
:104D44007F490008FFFFFFFFFFFFFFFFFFFFFFFF9B
:104D5400FFFF0000010041534349490000000000E7
:104D6400000000000000000000000000000000003F
:104D740000000000000041534349490000000000C6
:104D8400000000000000000000000000000000001F
:084D9400000000000000000017
:0400000508001AB520
:00000001FF
